:100000000C9434000C9451000C9451000C94510049
:100010000C9451000C9451000C9451000C9451001C
:100020000C9451000C9451000C9451000C9451000C
:100030000C9451000C9451000C9451000C945100FC
:100040000C9471000C9451000C9451000C945100CC
:100050000C9451000C9451000C9451000C945100DC
:100060000C9451000C94510011241FBECFEFD8E026
:10007000DEBFCDBF11E0A0E0B1E0EAE8F2E002C0EF
:1000800005900D92A830B107D9F721E0A8E0B1E0C2
:1000900001C01D92A131B207E1F70E94BB000C9490
:1000A00043010C94000098B1907C282F2F73922B61
:1000B00098B99BB19F73807C892B8BB908950E945E
:1000C00053002898299A8FE99FE00197F1F700C023
:1000D000000029988FE39FE10197F1F700C000002D
:1000E00008951F920F920FB60F9211242F933F93F2
:1000F0008F939F93AF93BF9380910D0190910E01C9
:10010000A0910F01B091100130910C0123E0230F59
:100110002D3758F50196A11DB11D20930C01809338
:100120000D0190930E01A0930F01B09310018091E7
:10013000080190910901A0910A01B0910B0101966B
:10014000A11DB11D8093080190930901A0930A019C
:10015000B0930B01BF91AF919F918F913F912F91E0
:100160000F900FBE0F901F90189526E8230F029650
:10017000A11DB11DD2CF789484B5826084BD84B5B1
:10018000816084BD85B5826085BD85B5816085BD92
:1001900080916E00816080936E001092810080914A
:1001A00081008260809381008091810081608093D2
:1001B0008100809180008160809380008091B100F7
:1001C00084608093B1008091B00081608093B00022
:1001D00080917A00846080937A0080917A008260B6
:1001E00080937A0080917A00816080937A00809178
:1001F0007A00806880937A001092C10087B18F6383
:1002000087B98AB1806C8AB984B1836084B92FEFD1
:1002100089EF90E0215080409040E1F700C000005D
:1002200088E30E945F008CE00E945F0086E00E94ED
:100230005F0081E00E945F002FEF89EF90E0215086
:1002400080409040E1F700C00000C0E0D1E089911B
:10025000811107C0C0E0D0E02097F1F30E940000B8
:10026000FBCF0E945300289A299A8FE19EE40197C0
:10027000F1F700C0000029988FE19EE40197F1F7A3
:0A02800000C00000E4CFF894FFCFA7
:08028A004144434554200000EB
:00000001FF
